:100000000C9432000C94FE000C9444000C944400B8
:100010000C9444000C9444000C9444000C94440050
:100020000C9444000C9444000C9444000C94440040
:100030000C9444000C9444000C9444000C94440030
:100040000C9444000C9444000C9444000C94440020
:100050000C944400DD03E803F303FE0309041404D5
:100060001F042A0411241FBECFE5D8E0DEBFCDBF98
:1000700020E0A0E6B0E001C01D92A136B207E1F792
:100080000E94B3010C9438060C94000060E080E0FC
:100090000E942D0161E080E00E942D0162E080E07D
:1000A0000E942D0160E081E00E942D0161E081E06D
:1000B0000E942D0162E081E00E942D0162E083E058
:1000C0000E94290163E080E00E943B0310926000DF
:1000D0000895CF93DF9300D01F92CDB7DEB7F89489
:1000E000789480916000813009F069C062E00E94DC
:1000F00035011B821A821982AE014D5F5F4F60E0AD
:1001000080E00E943901AE014E5F5F4F61E080E008
:100110000E943901AE014F5F5F4F62E080E00E94B4
:1001200039018981813051F460E00E94310148E851
:1001300053E162E080E00E943C0129C08B81813064
:1001400019F08A81813019F562E081E00E94310165
:100150000F2EF8E8EF2EF3E1FF2EF02D04E121E061
:1001600040E061E081E00E94780160E080E00E9470
:10017000350162E081E00E94350160E081E00E948B
:10018000310148E853E162E080E00E943C010F2E1B
:10019000F8E8EF2EF3E1FF2EF02D04E121E040E03E
:1001A00061E081E00E94780160E081E00E94350119
:1001B00062E081E00E9431011092600092CF62E023
:1001C00081E00E94310148E853E160E080E00E9454
:1001D0003C0128E833E144E161E080E00E945701FE
:1001E00048E853E162E080E00E943C0128E833E106
:1001F00044E161E080E00E94570173CF1F920F92AB
:100200000FB60F9211242F933F934F935F936F93E9
:100210007F938F939F93AF93BF93EF93FF938091BF
:100220006000811105C081E0809360000E94690038
:10023000FF91EF91BF91AF919F918F917F916F91BE
:100240005F914F913F912F910F900FBE0F901F9094
:10025000189540E00E94BA01089541E00E94BA0159
:10026000089541E00E944202089540E00E94420247
:1002700008950E94CA0208950F931F93CF93DF93AE
:10028000C82FD62F8A010E943101C8010E9445045F
:10029000182F6D2F8C2F0E943501111102C080E0A4
:1002A00001C085E0DF91CF911F910F910895EF92EA
:1002B000FF920F931F93CF93DF93E82EF62ED42F48
:1002C000890180E0C0E00BC06D2F70E0C8010E9482
:1002D0001E06AB016F2D8E2D0E943C01CF5FCD1706
:1002E00098F3DF91CF911F910F91FF90EF900895B8
:1002F000BF92CF92DF92EF92FF920F931F93CF9313
:10030000DF93C82ED62E142FD22FB12CC0E01AC0E6
:100310006D2D8C2D0E9431016D2F812F0E94310196
:10032000602F70E0C7010E941E06CB010E944504A9
:10033000B82E6D2D8C2D0E9435016D2F812F0E94BE
:100340003501CF5FC01720F3B11002C080E001C0BB
:1003500085E0DF91CF911F910F91FF90EF90DF909B
:10036000CF90BF9008950E9446000E94690080E0EF
:1003700090E00895843008F07BC0683008F07AC0BF
:100380004130C1F5813091F028F08230D9F08330CE
:1003900029F172C02AB381E090E002C0880F991F52
:1003A0006A95E2F7822B8ABB80E0089527B381E04B
:1003B00090E002C0880F991F6A95E2F7822B87BBF5
:1003C00080E0089524B381E090E002C0880F991F77
:1003D0006A95E2F7822B84BB80E0089521B381E027
:1003E00090E002C0880F991F6A95E2F7822B81BBCB
:1003F00080E00895411142C0813099F028F08230A8
:10040000E9F0833041F13CC02AB381E090E002C0C2
:10041000880F991F6A95E2F7809582238ABB80E056
:10042000089527B381E090E002C0880F991F6A9574
:10043000E2F78095822387BB80E0089524B381E0B2
:1004400090E002C0880F991F6A95E2F78095822399
:1004500084BB80E0089521B381E090E002C0880F62
:10046000991F6A95E2F78095822381BB80E0089509
:1004700082E0089583E0089580E0089581E0089582
:1004800080E00895843008F07BC0683008F07AC0BE
:100490004130C1F5813091F028F08230D9F08330BD
:1004A00029F172C02BB381E090E002C0880F991F40
:1004B0006A95E2F7822B8BBB80E0089528B381E038
:1004C00090E002C0880F991F6A95E2F7822B88BBE3
:1004D00080E0089525B381E090E002C0880F991F65
:1004E0006A95E2F7822B85BB80E0089522B381E014
:1004F00090E002C0880F991F6A95E2F7822B82BBB9
:1005000080E00895411142C0813099F028F0823096
:10051000E9F0833041F13CC02BB381E090E002C0B0
:10052000880F991F6A95E2F7809582238BBB80E044
:10053000089528B381E090E002C0880F991F6A9562
:10054000E2F78095822388BB80E0089525B381E09F
:1005500090E002C0880F991F6A95E2F78095822388
:1005600085BB80E0089522B381E090E002C0880F4F
:10057000991F6A95E2F78095822382BB80E00895F7
:1005800082E0089583E0089580E0089584E008956E
:1005900080E00895843008F068C0683008F067C0D3
:1005A0008130F1F030F0823091F1833009F446C0AF
:1005B00060C079B381E090E09C01062E02C0220F5A
:1005C000331F0A94E2F7872F90E08223932302C01F
:1005D000959587956A95E2F7FA01808380E0089502
:1005E00076B381E090E09C01062E02C0220F331FFB
:1005F0000A94E2F7872F90E08223932302C0959517
:1006000087956A95E2F7FA01808380E0089573B3D5
:1006100081E090E09C01062E02C0220F331F0A9455
:10062000E2F7872F90E08223932302C09595879568
:100630006A95E2F7FA01808380E0089570B381E063
:1006400090E09C01062E02C0220F331F0A94E2F7AD
:10065000872F90E08223932302C0959587956A9512
:10066000E2F7FA01808380E0089582E0089583E054
:10067000089580E008957894811128C0613069F070
:1006800028F0623089F06330B1F05DC085B78E7FAD
:1006900085BF85B78D7F85BF14C085B7816085BF55
:1006A00085B78D7F85BF0DC085B78E7F85BF85B728
:1006B000826085BF06C085B7816085BF85B78260CF
:1006C00085BF8BB780648BBF80E00895813041F592
:1006D000613069F028F0623089F06330B1F035C0E4
:1006E00085B78B7F85BF85B7877F85BF14C085B7EA
:1006F000846085BF85B7877F85BF0DC085B78B7F39
:1007000085BF85B7886085BF06C085B7846085BF13
:1007100085B7886085BF8BB780688BBF80E0089500
:100720008230A9F4623019F0633029F012C084B726
:100730008F7B84BF03C084B7806484BF8BB7806223
:100740008BBF80E0089581E0089581E0089582E004
:10075000089581E00895813069F028F0823089F0B1
:100760008330B1F01EC083B78F7B83BF83B7877F91
:1007700083BF14C083B7806483BF83B7877F83BF81
:100780000DC083B78F7B83BF83B7886083BF06C0EC
:1007900083B7806483BF83B7886083BF12BE80E065
:1007A000089581E0089590E08830910508F05DC0DB
:1007B000FC01E65DFF4F0C94320683B78E7F83BF4A
:1007C00083B78D7F83BF83B78B7F83BF80E008951E
:1007D00083B7816083BF83B78D7F83BF83B78B7FF0
:1007E00083BF80E0089583B78E7F83BF83B7826025
:1007F00083BF83B78B7F83BF80E0089583B7816019
:1008000083BF83B7826083BF83B78B7F83BF80E062
:10081000089583B78E7F83BF83B78D7F83BF83B7F0
:10082000846083BF80E0089583B7816083BF83B70E
:100830008D7F83BF83B7846083BF80E0089583B7D3
:100840008E7F83BF83B7826083BF83B7846083BF9B
:1008500080E0089583B7816083BF83B7826083BFE0
:1008600083B7846083BF80E0089582E0089583B7F2
:100870008E7F83BF83B78D7F83BF83B78B7F83BF1B
:1008800080E0089582BF80E00895CF92DF92EF92DA
:10089000FF920F931F93CF93DF93EC0180E00E94B0
:1008A000AB03C82EC13081E0D80740F420E031E02E
:1008B0007901EC1AFD0A01E010E019C0BE0180E0E8
:1008C00090E00E94E20420E030E040E85BE30E9418
:1008D00089050E949C040E94B3048B01CE01B801DB
:1008E0000E941E0620E031E07901E61AF70AC0E016
:1008F000D0E0D12C0EC08E2D0E94420485E00E94D3
:10090000D303D82E08B600FEFDCF98B7916098BFEC
:100910002196C017D10778F30E943704C11002C096
:100920008D2D01C08C2DDF91CF911F910F91FF90E4
:10093000EF90DF90CF9008950E946A0590F09F3766
:1009400048F4911116F40C94830560E070E080E89F
:100950009FE3089526F01B16611D711D811D0C94E7
:100960001F050C943A050E94500588F09F5798F097
:10097000B92F9927B751B0F0E1F0660F771F881FA4
:10098000991F1AF0BA95C9F714C0B13091F00E94BE
:100990008205B1E008950C948205672F782F88278F
:1009A000B85F39F0B93FCCF3869577956795B395E5
:1009B000D9F73EF490958095709561957F4F8F4F54
:1009C0009F4F0895E89409C097FB3EF49095809559
:1009D000709561957F4F8F4F9F4F9923A9F0F92F05
:1009E00096E9BB279395F695879577956795B79583
:1009F000F111F8CFFAF4BB0F11F460FF1BC06F5F69
:100A00007F4F8F4F9F4F16C0882311F096E911C07A
:100A1000772321F09EE8872F762F05C0662371F09B
:100A200096E8862F70E060E02AF09A95660F771FAF
:100A3000881FDAF7880F9695879597F90895882388
:100A400071F4772321F09850872B762F07C0662307
:100A500011F499270DC09051862B70E060E02AF0C8
:100A60009A95660F771F881FDAF7880F96958795F6
:100A700097F908959F3F31F0915020F4879577952D
:100A80006795B795880F911D9695879597F9089565
:100A900057FD9058440F551F59F05F3F71F047952F
:100AA000880F97FB991F61F09F3F79F08795089514
:100AB000121613061406551FF2CF4695F1DF08C033
:100AC000161617061806991FF1CF86957105610550
:100AD000089408950E945005A0F0BEE7B91788F465
:100AE000BB279F3860F41616B11D672F782F882713
:100AF000985FF7CF869577956795B11D9395963951
:100B0000C8F30895E894BB2766277727CB0197F9A8
:100B100008950E949C050C940D060E94FF0538F074
:100B20000E94060620F0952311F00C94F6050C9413
:100B3000FC0511240C9483050E94480570F3959FD1
:100B4000C1F3950F50E0551F629FF001729FBB27C4
:100B5000F00DB11D639FAA27F00DB11DAA1F649F60
:100B60006627B00DA11D661F829F2227B00DA11D13
:100B7000621F739FB00DA11D621F839FA00D611D99
:100B8000221F749F3327A00D611D231F849F600DBA
:100B9000211D822F762F6A2F11249F5750409AF0E3
:100BA000F1F088234AF0EE0FFF1FBB1F661F771F6F
:100BB000881F91505040A9F79E3F510580F00C943A
:100BC000F6050C9483055F3FE4F3983ED4F38695D5
:100BD00077956795B795F795E7959F5FC1F7FE2BDA
:100BE000880F911D9695879597F9089597F99F67B6
:100BF00080E870E060E008959FEF80EC08950024A5
:100C00000A941616170618060906089500240A9471
:100C100012161306140605060895092E0394000CF7
:100C200011F4882352F0BB0F40F4BF2B11F460FF86
:100C300004C06F5F7F4F8F4F9F4F0895AA1BBB1B50
:100C400051E107C0AA1FBB1FA617B70710F0A61BCC
:100C5000B70B881F991F5A95A9F780959095BC01ED
:100C6000CD010895EE0FFF1F0590F491E02D09943A
:040C7000F894FFCF26
:00000001FF
